{
  "contractName": "itemManager",
  "abi": [
    {
      "anonymous": false,
      "inputs": [
        {
          "indexed": true,
          "internalType": "address",
          "name": "previousOwner",
          "type": "address"
        },
        {
          "indexed": true,
          "internalType": "address",
          "name": "newOwner",
          "type": "address"
        }
      ],
      "name": "OwnershipTransferred",
      "type": "event"
    },
    {
      "anonymous": false,
      "inputs": [
        {
          "indexed": false,
          "internalType": "uint256",
          "name": "_itemIndex",
          "type": "uint256"
        },
        {
          "indexed": false,
          "internalType": "uint256",
          "name": "_step",
          "type": "uint256"
        },
        {
          "indexed": false,
          "internalType": "address",
          "name": "_itemAddress",
          "type": "address"
        }
      ],
      "name": "supplyChainStep",
      "type": "event"
    },
    {
      "inputs": [
        {
          "internalType": "uint256",
          "name": "",
          "type": "uint256"
        }
      ],
      "name": "items",
      "outputs": [
        {
          "internalType": "contract Item",
          "name": "_item",
          "type": "address"
        },
        {
          "internalType": "string",
          "name": "_identifier",
          "type": "string"
        },
        {
          "internalType": "uint256",
          "name": "_price",
          "type": "uint256"
        },
        {
          "internalType": "enum itemManager.supplyChainStatus",
          "name": "_status",
          "type": "uint8"
        }
      ],
      "stateMutability": "view",
      "type": "function",
      "constant": true
    },
    {
      "inputs": [],
      "name": "owner",
      "outputs": [
        {
          "internalType": "address",
          "name": "",
          "type": "address"
        }
      ],
      "stateMutability": "view",
      "type": "function",
      "constant": true
    },
    {
      "inputs": [],
      "name": "renounceOwnership",
      "outputs": [],
      "stateMutability": "nonpayable",
      "type": "function"
    },
    {
      "inputs": [
        {
          "internalType": "address",
          "name": "newOwner",
          "type": "address"
        }
      ],
      "name": "transferOwnership",
      "outputs": [],
      "stateMutability": "nonpayable",
      "type": "function"
    },
    {
      "inputs": [
        {
          "internalType": "string",
          "name": "_identifier",
          "type": "string"
        },
        {
          "internalType": "uint256",
          "name": "_price",
          "type": "uint256"
        }
      ],
      "name": "createItem",
      "outputs": [],
      "stateMutability": "nonpayable",
      "type": "function"
    },
    {
      "inputs": [
        {
          "internalType": "uint256",
          "name": "_itemIndex",
          "type": "uint256"
        }
      ],
      "name": "triggerPayment",
      "outputs": [],
      "stateMutability": "payable",
      "type": "function",
      "payable": true
    },
    {
      "inputs": [
        {
          "internalType": "uint256",
          "name": "_itemIndex",
          "type": "uint256"
        }
      ],
      "name": "triggerDelivery",
      "outputs": [],
      "stateMutability": "nonpayable",
      "type": "function"
    }
  ],
  "bytecode": "0x608060405234801561001057600080fd5b5061002d61002261003260201b60201c565b61003a60201b60201c565b6100fe565b600033905090565b60008060009054906101000a900473ffffffffffffffffffffffffffffffffffffffff169050816000806101000a81548173ffffffffffffffffffffffffffffffffffffffff021916908373ffffffffffffffffffffffffffffffffffffffff1602179055508173ffffffffffffffffffffffffffffffffffffffff168173ffffffffffffffffffffffffffffffffffffffff167f8be0079c531659141344cd1fd0a4f28419497f9722a3daafe3b4186f6b6457e060405160405180910390a35050565b611c998061010d6000396000f3fe6080604052600436106200007a5760003560e01c80638da5cb5b11620000555780638da5cb5b14620000e7578063bfb231d21462000117578063cd31831e146200015e578063f2fde38b146200018c576200007a565b8063715018a6146200007f578063800fb83f14620000995780638c55174214620000b9575b600080fd5b3480156200008c57600080fd5b5062000097620001ba565b005b620000b76004803603810190620000b1919062000c65565b6200024b565b005b348015620000c657600080fd5b50620000e56004803603810190620000df919062000df9565b62000428565b005b348015620000f457600080fd5b50620000ff6200066d565b6040516200010e919062000ea4565b60405180910390f35b3480156200012457600080fd5b506200014360048036038101906200013d919062000c65565b62000696565b60405162000155949392919062001050565b60405180910390f35b3480156200016b57600080fd5b506200018a600480360381019062000184919062000c65565b62000783565b005b3480156200019957600080fd5b50620001b86004803603810190620001b29190620010d5565b62000989565b005b620001c462000a8c565b73ffffffffffffffffffffffffffffffffffffffff16620001e46200066d565b73ffffffffffffffffffffffffffffffffffffffff16146200023d576040517f08c379a0000000000000000000000000000000000000000000000000000000008152600401620002349062001157565b60405180910390fd5b62000249600062000a94565b565b34600160008381526020019081526020016000206002015414620002a6576040517f08c379a00000000000000000000000000000000000000000000000000000000081526004016200029d90620011c9565b60405180910390fd5b60006002811115620002bd57620002bc62000fd0565b5b6001600083815260200190815260200160002060030160009054906101000a900460ff166002811115620002f657620002f562000fd0565b5b1462000339576040517f08c379a000000000000000000000000000000000000000000000000000000000815260040162000330906200123b565b60405180910390fd5b600180600083815260200190815260200160002060030160006101000a81548160ff0219169083600281111562000375576200037462000fd0565b5b02179055507f52f087d97dd525b45ca8fefeb925a35f3f0fc5454a3588403de863a082950618816001600084815260200190815260200160002060030160009054906101000a900460ff166002811115620003d557620003d462000fd0565b5b6001600085815260200190815260200160002060000160009054906101000a900473ffffffffffffffffffffffffffffffffffffffff166040516200041d939291906200125d565b60405180910390a150565b6200043262000a8c565b73ffffffffffffffffffffffffffffffffffffffff16620004526200066d565b73ffffffffffffffffffffffffffffffffffffffff1614620004ab576040517f08c379a0000000000000000000000000000000000000000000000000000000008152600401620004a29062001157565b60405180910390fd5b60003082600254604051620004c09062000b58565b620004ce93929190620012d3565b604051809103906000f080158015620004eb573d6000803e3d6000fd5b5090508060016000600254815260200190815260200160002060000160006101000a81548173ffffffffffffffffffffffffffffffffffffffff021916908373ffffffffffffffffffffffffffffffffffffffff1602179055508260016000600254815260200190815260200160002060010190805190602001906200057392919062000b66565b508160016000600254815260200190815260200160002060020181905550600060016000600254815260200190815260200160002060030160006101000a81548160ff02191690836002811115620005d057620005cf62000fd0565b5b02179055507f52f087d97dd525b45ca8fefeb925a35f3f0fc5454a3588403de863a08295061860025460016000600254815260200190815260200160002060030160009054906101000a900460ff16600281111562000634576200063362000fd0565b5b8360405162000646939291906200125d565b60405180910390a16002600081548092919062000663906200133f565b9190505550505050565b60008060009054906101000a900473ffffffffffffffffffffffffffffffffffffffff16905090565b60016020528060005260406000206000915090508060000160009054906101000a900473ffffffffffffffffffffffffffffffffffffffff1690806001018054620006e190620013bb565b80601f01602080910402602001604051908101604052809291908181526020018280546200070f90620013bb565b8015620007605780601f10620007345761010080835404028352916020019162000760565b820191906000526020600020905b8154815290600101906020018083116200074257829003601f168201915b5050505050908060020154908060030160009054906101000a900460ff16905084565b6200078d62000a8c565b73ffffffffffffffffffffffffffffffffffffffff16620007ad6200066d565b73ffffffffffffffffffffffffffffffffffffffff161462000806576040517f08c379a0000000000000000000000000000000000000000000000000000000008152600401620007fd9062001157565b60405180910390fd5b600160028111156200081d576200081c62000fd0565b5b6001600083815260200190815260200160002060030160009054906101000a900460ff16600281111562000856576200085562000fd0565b5b1462000899576040517f08c379a0000000000000000000000000000000000000000000000000000000008152600401620008909062001440565b60405180910390fd5b60026001600083815260200190815260200160002060030160006101000a81548160ff02191690836002811115620008d657620008d562000fd0565b5b02179055507f52f087d97dd525b45ca8fefeb925a35f3f0fc5454a3588403de863a082950618816001600084815260200190815260200160002060030160009054906101000a900460ff16600281111562000936576200093562000fd0565b5b6001600085815260200190815260200160002060000160009054906101000a900473ffffffffffffffffffffffffffffffffffffffff166040516200097e939291906200125d565b60405180910390a150565b6200099362000a8c565b73ffffffffffffffffffffffffffffffffffffffff16620009b36200066d565b73ffffffffffffffffffffffffffffffffffffffff161462000a0c576040517f08c379a000000000000000000000000000000000000000000000000000000000815260040162000a039062001157565b60405180910390fd5b600073ffffffffffffffffffffffffffffffffffffffff168173ffffffffffffffffffffffffffffffffffffffff160362000a7e576040517f08c379a000000000000000000000000000000000000000000000000000000000815260040162000a7590620014d8565b60405180910390fd5b62000a898162000a94565b50565b600033905090565b60008060009054906101000a900473ffffffffffffffffffffffffffffffffffffffff169050816000806101000a81548173ffffffffffffffffffffffffffffffffffffffff021916908373ffffffffffffffffffffffffffffffffffffffff1602179055508173ffffffffffffffffffffffffffffffffffffffff168173ffffffffffffffffffffffffffffffffffffffff167f8be0079c531659141344cd1fd0a4f28419497f9722a3daafe3b4186f6b6457e060405160405180910390a35050565b61076980620014fb83390190565b82805462000b7490620013bb565b90600052602060002090601f01602090048101928262000b98576000855562000be4565b82601f1062000bb357805160ff191683800117855562000be4565b8280016001018555821562000be4579182015b8281111562000be357825182559160200191906001019062000bc6565b5b50905062000bf3919062000bf7565b5090565b5b8082111562000c1257600081600090555060010162000bf8565b5090565b6000604051905090565b600080fd5b600080fd5b6000819050919050565b62000c3f8162000c2a565b811462000c4b57600080fd5b50565b60008135905062000c5f8162000c34565b92915050565b60006020828403121562000c7e5762000c7d62000c20565b5b600062000c8e8482850162000c4e565b91505092915050565b600080fd5b600080fd5b6000601f19601f8301169050919050565b7f4e487b7100000000000000000000000000000000000000000000000000000000600052604160045260246000fd5b62000cec8262000ca1565b810181811067ffffffffffffffff8211171562000d0e5762000d0d62000cb2565b5b80604052505050565b600062000d2362000c16565b905062000d31828262000ce1565b919050565b600067ffffffffffffffff82111562000d545762000d5362000cb2565b5b62000d5f8262000ca1565b9050602081019050919050565b82818337600083830152505050565b600062000d9262000d8c8462000d36565b62000d17565b90508281526020810184848401111562000db15762000db062000c9c565b5b62000dbe84828562000d6c565b509392505050565b600082601f83011262000dde5762000ddd62000c97565b5b813562000df084826020860162000d7b565b91505092915050565b6000806040838503121562000e135762000e1262000c20565b5b600083013567ffffffffffffffff81111562000e345762000e3362000c25565b5b62000e428582860162000dc6565b925050602062000e558582860162000c4e565b9150509250929050565b600073ffffffffffffffffffffffffffffffffffffffff82169050919050565b600062000e8c8262000e5f565b9050919050565b62000e9e8162000e7f565b82525050565b600060208201905062000ebb600083018462000e93565b92915050565b6000819050919050565b600062000eec62000ee662000ee08462000e5f565b62000ec1565b62000e5f565b9050919050565b600062000f008262000ecb565b9050919050565b600062000f148262000ef3565b9050919050565b62000f268162000f07565b82525050565b600081519050919050565b600082825260208201905092915050565b60005b8381101562000f6857808201518184015260208101905062000f4b565b8381111562000f78576000848401525b50505050565b600062000f8b8262000f2c565b62000f97818562000f37565b935062000fa981856020860162000f48565b62000fb48162000ca1565b840191505092915050565b62000fca8162000c2a565b82525050565b7f4e487b7100000000000000000000000000000000000000000000000000000000600052602160045260246000fd5b6003811062001013576200101262000fd0565b5b50565b6000819050620010268262000fff565b919050565b6000620010388262001016565b9050919050565b6200104a816200102b565b82525050565b600060808201905062001067600083018762000f1b565b81810360208301526200107b818662000f7e565b90506200108c604083018562000fbf565b6200109b60608301846200103f565b95945050505050565b620010af8162000e7f565b8114620010bb57600080fd5b50565b600081359050620010cf81620010a4565b92915050565b600060208284031215620010ee57620010ed62000c20565b5b6000620010fe84828501620010be565b91505092915050565b7f4f776e61626c653a2063616c6c6572206973206e6f7420746865206f776e6572600082015250565b60006200113f60208362000f37565b91506200114c8262001107565b602082019050919050565b60006020820190508181036000830152620011728162001130565b9050919050565b7f4f6e6c792046756c6c2050726963652041726520416363657074656400000000600082015250565b6000620011b1601c8362000f37565b9150620011be8262001179565b602082019050919050565b60006020820190508181036000830152620011e481620011a2565b9050919050565b7f4974656d20537461747573206973204675727468657200000000000000000000600082015250565b60006200122360168362000f37565b91506200123082620011eb565b602082019050919050565b60006020820190508181036000830152620012568162001214565b9050919050565b600060608201905062001274600083018662000fbf565b62001283602083018562000fbf565b62001292604083018462000e93565b949350505050565b6000620012a78262000ecb565b9050919050565b6000620012bb826200129a565b9050919050565b620012cd81620012ae565b82525050565b6000606082019050620012ea6000830186620012c2565b620012f9602083018562000fbf565b62001308604083018462000fbf565b949350505050565b7f4e487b7100000000000000000000000000000000000000000000000000000000600052601160045260246000fd5b60006200134c8262000c2a565b91507fffffffffffffffffffffffffffffffffffffffffffffffffffffffffffffffff820362001381576200138062001310565b5b600182019050919050565b7f4e487b7100000000000000000000000000000000000000000000000000000000600052602260045260246000fd5b60006002820490506001821680620013d457607f821691505b602082108103620013ea57620013e96200138c565b5b50919050565b7f4974656d20537461747573206973206e6f742050616964000000000000000000600082015250565b60006200142860178362000f37565b91506200143582620013f0565b602082019050919050565b600060208201905081810360008301526200145b8162001419565b9050919050565b7f4f776e61626c653a206e6577206f776e657220697320746865207a65726f206160008201527f6464726573730000000000000000000000000000000000000000000000000000602082015250565b6000620014c060268362000f37565b9150620014cd8262001462565b604082019050919050565b60006020820190508181036000830152620014f381620014b1565b905091905056fe608060405234801561001057600080fd5b5060405161076938038061076983398181016040528101906100329190610134565b816000819055508060028190555082600360006101000a81548173ffffffffffffffffffffffffffffffffffffffff021916908373ffffffffffffffffffffffffffffffffffffffff160217905550505050610187565b600080fd5b600073ffffffffffffffffffffffffffffffffffffffff82169050919050565b60006100b98261008e565b9050919050565b60006100cb826100ae565b9050919050565b6100db816100c0565b81146100e657600080fd5b50565b6000815190506100f8816100d2565b92915050565b6000819050919050565b610111816100fe565b811461011c57600080fd5b50565b60008151905061012e81610108565b92915050565b60008060006060848603121561014d5761014c610089565b5b600061015b868287016100e9565b935050602061016c8682870161011f565b925050604061017d8682870161011f565b9150509250925092565b6105d3806101966000396000f3fe6080604052600436106100385760003560e01c80632986c0e5146102455780633c8da5881461027057806389794d001461029b57610240565b3661024057600060015414610082576040517f08c379a000000000000000000000000000000000000000000000000000000000815260040161007990610335565b60405180910390fd5b34600054146100c6576040517f08c379a00000000000000000000000000000000000000000000000000000000081526004016100bd906103a1565b60405180910390fd5b34600160008282546100d891906103fa565b925050819055506000600360009054906101000a900473ffffffffffffffffffffffffffffffffffffffff1673ffffffffffffffffffffffffffffffffffffffff163460025460405160240161012e919061045f565b6040516020818303038152906040527f800fb83f000000000000000000000000000000000000000000000000000000007bffffffffffffffffffffffffffffffffffffffffffffffffffffffff19166020820180517bffffffffffffffffffffffffffffffffffffffffffffffffffffffff83818316178352505050506040516101b891906104f4565b60006040518083038185875af1925050503d80600081146101f5576040519150601f19603f3d011682016040523d82523d6000602084013e6101fa565b606091505b505090508061023e576040517f08c379a00000000000000000000000000000000000000000000000000000000081526004016102359061057d565b60405180910390fd5b005b600080fd5b34801561025157600080fd5b5061025a6102c6565b604051610267919061045f565b60405180910390f35b34801561027c57600080fd5b506102856102cc565b604051610292919061045f565b60405180910390f35b3480156102a757600080fd5b506102b06102d2565b6040516102bd919061045f565b60405180910390f35b60025481565b60005481565b60015481565b600082825260208201905092915050565b7f4974656d206973207061696420616c7265616479000000000000000000000000600082015250565b600061031f6014836102d8565b915061032a826102e9565b602082019050919050565b6000602082019050818103600083015261034e81610312565b9050919050565b7f4f6e6c792046756c6c205061796d656e74732061726520616c6c6f7765640000600082015250565b600061038b601e836102d8565b915061039682610355565b602082019050919050565b600060208201905081810360008301526103ba8161037e565b9050919050565b6000819050919050565b7f4e487b7100000000000000000000000000000000000000000000000000000000600052601160045260246000fd5b6000610405826103c1565b9150610410836103c1565b9250827fffffffffffffffffffffffffffffffffffffffffffffffffffffffffffffffff03821115610445576104446103cb565b5b828201905092915050565b610459816103c1565b82525050565b60006020820190506104746000830184610450565b92915050565b600081519050919050565b600081905092915050565b60005b838110156104ae578082015181840152602081019050610493565b838111156104bd576000848401525b50505050565b60006104ce8261047a565b6104d88185610485565b93506104e8818560208601610490565b80840191505092915050565b600061050082846104c3565b915081905092915050565b7f5468652054726173616374696f6e20576173206e6f742053756363657373667560008201527f6c6c000000000000000000000000000000000000000000000000000000000000602082015250565b60006105676022836102d8565b91506105728261050b565b604082019050919050565b600060208201905081810360008301526105968161055a565b905091905056fea2646970667358221220f13cd9da18610a68d302093e80bab0b722a267b2b7810fdd2a53d6483d280a0764736f6c634300080d0033a2646970667358221220c5cf33ff80bf6d7b9a64409c74453d07e29f5a6387f94059d01953a42318b09f64736f6c634300080d0033",
  "immutableReferences": {},
  "source": "// SPDX-License-Identifier: MIT\r\npragma solidity ^0.8.13;\r\nimport \"@openzeppelin/contracts/access/Ownable.sol\";\r\nimport \"./Item.sol\";\r\ncontract itemManager is Ownable{\r\n\r\n    enum supplyChainStatus{\r\n        Created,\r\n        Paid,\r\n        Delivered\r\n    }\r\n\r\n    struct s_item{\r\n        Item _item;\r\n        string _identifier;\r\n        uint _price;\r\n        itemManager.supplyChainStatus _status;\r\n    }\r\n\r\n    mapping (uint=>s_item) public items;\r\n    uint itemIndex;\r\n\r\n    event supplyChainStep(uint _itemIndex,uint _step,address _itemAddress);\r\n\r\n    function createItem(string memory _identifier,uint _price) public onlyOwner{\r\n        Item item = new Item(this,_price,itemIndex);\r\n        items[itemIndex]._item = item;\r\n        items[itemIndex]._identifier = _identifier;\r\n        items[itemIndex]._price = _price;\r\n        items[itemIndex]._status = supplyChainStatus.Created;\r\n        emit supplyChainStep(itemIndex,uint(items[itemIndex]._status),address(item));\r\n        itemIndex++;\r\n    }\r\n\r\n    function triggerPayment(uint _itemIndex) public payable{\r\n        require(items[_itemIndex]._price == msg.value,\"Only Full Price Are Accepted\");\r\n        require(items[_itemIndex]._status == supplyChainStatus.Created,\"Item Status is Further\");\r\n        items[_itemIndex]._status = supplyChainStatus.Paid;\r\n        emit supplyChainStep(_itemIndex,uint(items[_itemIndex]._status),address(items[_itemIndex]._item));\r\n    }\r\n    function triggerDelivery(uint _itemIndex) public onlyOwner{\r\n        require(items[_itemIndex]._status == supplyChainStatus.Paid,\"Item Status is not Paid\");\r\n        items[_itemIndex]._status = supplyChainStatus.Delivered;\r\n        emit supplyChainStep(_itemIndex,uint(items[_itemIndex]._status),address(items[_itemIndex]._item));\r\n    }\r\n\r\n}",
  "sourcePath": "C:\\MY WORK\\Web3\\SC\\SupplyChainInBlockchain\\contracts\\ItemManager.sol",
  "compiler": {
    "name": "solc",
    "version": "0.8.13+commit.abaa5c0e.Emscripten.clang"
  },
  "schemaVersion": "3.4.7",
  "updatedAt": "2022-05-06T18:58:00.483Z",
  "networkType": "ethereum",
  "devdoc": {
    "kind": "dev",
    "methods": {
      "owner()": {
        "details": "Returns the address of the current owner."
      },
      "renounceOwnership()": {
        "details": "Leaves the contract without owner. It will not be possible to call `onlyOwner` functions anymore. Can only be called by the current owner. NOTE: Renouncing ownership will leave the contract without an owner, thereby removing any functionality that is only available to the owner."
      },
      "transferOwnership(address)": {
        "details": "Transfers ownership of the contract to a new account (`newOwner`). Can only be called by the current owner."
      }
    },
    "version": 1
  },
  "userdoc": {
    "kind": "user",
    "methods": {},
    "version": 1
  }
}